:020000040000FA
:0400000080311A2809
:100008007E1480310B1F18282100911C182820000D
:10001800911C18288031822080317603031D162810
:10002800F6011828F601F60A7E10090080311C280E
:10003800F6017E1020008031462822008C018D01B7
:100048008E01373021008C0070308D007F308E009B
:100058004C3023008E0030308D0017308C00240087
:100068008D018C0103308E002100951325008C0131
:100078008D018E01373026008C00F0308D00FF3066
:100088008E0008008031762080318B170B172000F6
:100098008E180E1C5E2822008E173D30F300E130CA
:1000A800F2004030890B5628F20B5628F30B5628DD
:1000B80022008E13760C2200031C8D1303188D1753
:1000C8004B28FF3020009B009A01911021009114C9
:1000D8009F30F0000030F100803196204D30200034
:1000E8009C00080080312120803180318E208031B1
:1000F80080319B20803180316520080020009110DC
:10010800740875040319080075088A0074080A0041
:10011800803108007A30210099009A019801220064
:10012800960108007108F5007008F4000800163000
:080138002100970008000800F7
:020000040001F9
:04000E00E4FFFFFE0E
:00000001FF
